{
  "contractName": "Factory",
  "abi": [
    {
      "constant": true,
      "inputs": [
        {
          "name": "",
          "type": "address"
        }
      ],
      "name": "custodianDepositAddress",
      "outputs": [
        {
          "name": "",
          "type": "string"
        }
      ],
      "payable": false,
      "stateMutability": "view",
      "type": "function"
    },
    {
      "constant": false,
      "inputs": [
        {
          "name": "_token",
          "type": "address"
        }
      ],
      "name": "reclaimToken",
      "outputs": [],
      "payable": false,
      "stateMutability": "nonpayable",
      "type": "function"
    },
    {
      "constant": true,
      "inputs": [
        {
          "name": "",
          "type": "uint256"
        }
      ],
      "name": "mintRequests",
      "outputs": [
        {
          "name": "requester",
          "type": "address"
        },
        {
          "name": "amount",
          "type": "uint256"
        },
        {
          "name": "depositAddress",
          "type": "string"
        },
        {
          "name": "txid",
          "type": "string"
        },
        {
          "name": "nonce",
          "type": "uint256"
        },
        {
          "name": "timestamp",
          "type": "uint256"
        },
        {
          "name": "status",
          "type": "uint8"
        }
      ],
      "payable": false,
      "stateMutability": "view",
      "type": "function"
    },
    {
      "constant": false,
      "inputs": [],
      "name": "claimOwnership",
      "outputs": [],
      "payable": false,
      "stateMutability": "nonpayable",
      "type": "function"
    },
    {
      "constant": true,
      "inputs": [
        {
          "name": "",
          "type": "address"
        }
      ],
      "name": "merchantDepositAddress",
      "outputs": [
        {
          "name": "",
          "type": "string"
        }
      ],
      "payable": false,
      "stateMutability": "view",
      "type": "function"
    },
    {
      "constant": true,
      "inputs": [
        {
          "name": "",
          "type": "uint256"
        }
      ],
      "name": "burnRequests",
      "outputs": [
        {
          "name": "requester",
          "type": "address"
        },
        {
          "name": "amount",
          "type": "uint256"
        },
        {
          "name": "depositAddress",
          "type": "string"
        },
        {
          "name": "txid",
          "type": "string"
        },
        {
          "name": "nonce",
          "type": "uint256"
        },
        {
          "name": "timestamp",
          "type": "uint256"
        },
        {
          "name": "status",
          "type": "uint8"
        }
      ],
      "payable": false,
      "stateMutability": "view",
      "type": "function"
    },
    {
      "constant": false,
      "inputs": [],
      "name": "renounceOwnership",
      "outputs": [],
      "payable": false,
      "stateMutability": "nonpayable",
      "type": "function"
    },
    {
      "constant": true,
      "inputs": [],
      "name": "owner",
      "outputs": [
        {
          "name": "",
          "type": "address"
        }
      ],
      "payable": false,
      "stateMutability": "view",
      "type": "function"
    },
    {
      "constant": true,
      "inputs": [
        {
          "name": "",
          "type": "bytes32"
        }
      ],
      "name": "mintRequestNonce",
      "outputs": [
        {
          "name": "",
          "type": "uint256"
        }
      ],
      "payable": false,
      "stateMutability": "view",
      "type": "function"
    },
    {
      "constant": true,
      "inputs": [
        {
          "name": "",
          "type": "bytes32"
        }
      ],
      "name": "burnRequestNonce",
      "outputs": [
        {
          "name": "",
          "type": "uint256"
        }
      ],
      "payable": false,
      "stateMutability": "view",
      "type": "function"
    },
    {
      "constant": true,
      "inputs": [],
      "name": "pendingOwner",
      "outputs": [
        {
          "name": "",
          "type": "address"
        }
      ],
      "payable": false,
      "stateMutability": "view",
      "type": "function"
    },
    {
      "constant": false,
      "inputs": [
        {
          "name": "newOwner",
          "type": "address"
        }
      ],
      "name": "transferOwnership",
      "outputs": [],
      "payable": false,
      "stateMutability": "nonpayable",
      "type": "function"
    },
    {
      "constant": true,
      "inputs": [],
      "name": "controller",
      "outputs": [
        {
          "name": "",
          "type": "address"
        }
      ],
      "payable": false,
      "stateMutability": "view",
      "type": "function"
    },
    {
      "inputs": [
        {
          "name": "_controller",
          "type": "address"
        }
      ],
      "payable": false,
      "stateMutability": "nonpayable",
      "type": "constructor"
    },
    {
      "anonymous": false,
      "inputs": [
        {
          "indexed": true,
          "name": "merchant",
          "type": "address"
        },
        {
          "indexed": true,
          "name": "sender",
          "type": "address"
        },
        {
          "indexed": false,
          "name": "depositAddress",
          "type": "string"
        }
      ],
      "name": "CustodianDepositAddressSet",
      "type": "event"
    },
    {
      "anonymous": false,
      "inputs": [
        {
          "indexed": true,
          "name": "merchant",
          "type": "address"
        },
        {
          "indexed": false,
          "name": "depositAddress",
          "type": "string"
        }
      ],
      "name": "MerchantDepositAddressSet",
      "type": "event"
    },
    {
      "anonymous": false,
      "inputs": [
        {
          "indexed": true,
          "name": "nonce",
          "type": "uint256"
        },
        {
          "indexed": true,
          "name": "requester",
          "type": "address"
        },
        {
          "indexed": false,
          "name": "amount",
          "type": "uint256"
        },
        {
          "indexed": false,
          "name": "depositAddress",
          "type": "string"
        },
        {
          "indexed": false,
          "name": "txid",
          "type": "string"
        },
        {
          "indexed": false,
          "name": "timestamp",
          "type": "uint256"
        },
        {
          "indexed": false,
          "name": "requestHash",
          "type": "bytes32"
        }
      ],
      "name": "MintRequestAdd",
      "type": "event"
    },
    {
      "anonymous": false,
      "inputs": [
        {
          "indexed": true,
          "name": "nonce",
          "type": "uint256"
        },
        {
          "indexed": true,
          "name": "requester",
          "type": "address"
        },
        {
          "indexed": false,
          "name": "requestHash",
          "type": "bytes32"
        }
      ],
      "name": "MintRequestCancel",
      "type": "event"
    },
    {
      "anonymous": false,
      "inputs": [
        {
          "indexed": true,
          "name": "nonce",
          "type": "uint256"
        },
        {
          "indexed": true,
          "name": "requester",
          "type": "address"
        },
        {
          "indexed": false,
          "name": "amount",
          "type": "uint256"
        },
        {
          "indexed": false,
          "name": "depositAddress",
          "type": "string"
        },
        {
          "indexed": false,
          "name": "txid",
          "type": "string"
        },
        {
          "indexed": false,
          "name": "timestamp",
          "type": "uint256"
        },
        {
          "indexed": false,
          "name": "requestHash",
          "type": "bytes32"
        }
      ],
      "name": "MintConfirmed",
      "type": "event"
    },
    {
      "anonymous": false,
      "inputs": [
        {
          "indexed": true,
          "name": "nonce",
          "type": "uint256"
        },
        {
          "indexed": true,
          "name": "requester",
          "type": "address"
        },
        {
          "indexed": false,
          "name": "amount",
          "type": "uint256"
        },
        {
          "indexed": false,
          "name": "depositAddress",
          "type": "string"
        },
        {
          "indexed": false,
          "name": "txid",
          "type": "string"
        },
        {
          "indexed": false,
          "name": "timestamp",
          "type": "uint256"
        },
        {
          "indexed": false,
          "name": "requestHash",
          "type": "bytes32"
        }
      ],
      "name": "MintRejected",
      "type": "event"
    },
    {
      "anonymous": false,
      "inputs": [
        {
          "indexed": true,
          "name": "nonce",
          "type": "uint256"
        },
        {
          "indexed": true,
          "name": "requester",
          "type": "address"
        },
        {
          "indexed": false,
          "name": "amount",
          "type": "uint256"
        },
        {
          "indexed": false,
          "name": "depositAddress",
          "type": "string"
        },
        {
          "indexed": false,
          "name": "timestamp",
          "type": "uint256"
        },
        {
          "indexed": false,
          "name": "requestHash",
          "type": "bytes32"
        }
      ],
      "name": "Burned",
      "type": "event"
    },
    {
      "anonymous": false,
      "inputs": [
        {
          "indexed": true,
          "name": "nonce",
          "type": "uint256"
        },
        {
          "indexed": true,
          "name": "requester",
          "type": "address"
        },
        {
          "indexed": false,
          "name": "amount",
          "type": "uint256"
        },
        {
          "indexed": false,
          "name": "depositAddress",
          "type": "string"
        },
        {
          "indexed": false,
          "name": "txid",
          "type": "string"
        },
        {
          "indexed": false,
          "name": "timestamp",
          "type": "uint256"
        },
        {
          "indexed": false,
          "name": "inputRequestHash",
          "type": "bytes32"
        }
      ],
      "name": "BurnConfirmed",
      "type": "event"
    },
    {
      "anonymous": false,
      "inputs": [
        {
          "indexed": true,
          "name": "previousOwner",
          "type": "address"
        }
      ],
      "name": "OwnershipRenounced",
      "type": "event"
    },
    {
      "anonymous": false,
      "inputs": [
        {
          "indexed": true,
          "name": "previousOwner",
          "type": "address"
        },
        {
          "indexed": true,
          "name": "newOwner",
          "type": "address"
        }
      ],
      "name": "OwnershipTransferred",
      "type": "event"
    },
    {
      "constant": false,
      "inputs": [
        {
          "name": "merchant",
          "type": "address"
        },
        {
          "name": "depositAddress",
          "type": "string"
        }
      ],
      "name": "setCustodianDepositAddress",
      "outputs": [
        {
          "name": "",
          "type": "bool"
        }
      ],
      "payable": false,
      "stateMutability": "nonpayable",
      "type": "function"
    },
    {
      "constant": false,
      "inputs": [
        {
          "name": "depositAddress",
          "type": "string"
        }
      ],
      "name": "setMerchantDepositAddress",
      "outputs": [
        {
          "name": "",
          "type": "bool"
        }
      ],
      "payable": false,
      "stateMutability": "nonpayable",
      "type": "function"
    },
    {
      "constant": false,
      "inputs": [
        {
          "name": "amount",
          "type": "uint256"
        },
        {
          "name": "txid",
          "type": "string"
        },
        {
          "name": "depositAddress",
          "type": "string"
        }
      ],
      "name": "addMintRequest",
      "outputs": [
        {
          "name": "",
          "type": "bool"
        }
      ],
      "payable": false,
      "stateMutability": "nonpayable",
      "type": "function"
    },
    {
      "constant": false,
      "inputs": [
        {
          "name": "requestHash",
          "type": "bytes32"
        }
      ],
      "name": "cancelMintRequest",
      "outputs": [
        {
          "name": "",
          "type": "bool"
        }
      ],
      "payable": false,
      "stateMutability": "nonpayable",
      "type": "function"
    },
    {
      "constant": false,
      "inputs": [
        {
          "name": "requestHash",
          "type": "bytes32"
        }
      ],
      "name": "confirmMintRequest",
      "outputs": [
        {
          "name": "",
          "type": "bool"
        }
      ],
      "payable": false,
      "stateMutability": "nonpayable",
      "type": "function"
    },
    {
      "constant": false,
      "inputs": [
        {
          "name": "requestHash",
          "type": "bytes32"
        }
      ],
      "name": "rejectMintRequest",
      "outputs": [
        {
          "name": "",
          "type": "bool"
        }
      ],
      "payable": false,
      "stateMutability": "nonpayable",
      "type": "function"
    },
    {
      "constant": false,
      "inputs": [
        {
          "name": "amount",
          "type": "uint256"
        }
      ],
      "name": "burn",
      "outputs": [
        {
          "name": "",
          "type": "bool"
        }
      ],
      "payable": false,
      "stateMutability": "nonpayable",
      "type": "function"
    },
    {
      "constant": false,
      "inputs": [
        {
          "name": "requestHash",
          "type": "bytes32"
        },
        {
          "name": "txid",
          "type": "string"
        }
      ],
      "name": "confirmBurnRequest",
      "outputs": [
        {
          "name": "",
          "type": "bool"
        }
      ],
      "payable": false,
      "stateMutability": "nonpayable",
      "type": "function"
    },
    {
      "constant": true,
      "inputs": [
        {
          "name": "nonce",
          "type": "uint256"
        }
      ],
      "name": "getMintRequest",
      "outputs": [
        {
          "name": "requestNonce",
          "type": "uint256"
        },
        {
          "name": "requester",
          "type": "address"
        },
        {
          "name": "amount",
          "type": "uint256"
        },
        {
          "name": "depositAddress",
          "type": "string"
        },
        {
          "name": "txid",
          "type": "string"
        },
        {
          "name": "timestamp",
          "type": "uint256"
        },
        {
          "name": "status",
          "type": "string"
        },
        {
          "name": "requestHash",
          "type": "bytes32"
        }
      ],
      "payable": false,
      "stateMutability": "view",
      "type": "function"
    },
    {
      "constant": true,
      "inputs": [],
      "name": "getMintRequestsLength",
      "outputs": [
        {
          "name": "length",
          "type": "uint256"
        }
      ],
      "payable": false,
      "stateMutability": "view",
      "type": "function"
    },
    {
      "constant": true,
      "inputs": [
        {
          "name": "nonce",
          "type": "uint256"
        }
      ],
      "name": "getBurnRequest",
      "outputs": [
        {
          "name": "requestNonce",
          "type": "uint256"
        },
        {
          "name": "requester",
          "type": "address"
        },
        {
          "name": "amount",
          "type": "uint256"
        },
        {
          "name": "depositAddress",
          "type": "string"
        },
        {
          "name": "txid",
          "type": "string"
        },
        {
          "name": "timestamp",
          "type": "uint256"
        },
        {
          "name": "status",
          "type": "string"
        },
        {
          "name": "requestHash",
          "type": "bytes32"
        }
      ],
      "payable": false,
      "stateMutability": "view",
      "type": "function"
    },
    {
      "constant": true,
      "inputs": [],
      "name": "getBurnRequestsLength",
      "outputs": [
        {
          "name": "length",
          "type": "uint256"
        }
      ],
      "payable": false,
      "stateMutability": "view",
      "type": "function"
    }
  ],
  "bytecode": "0x608060405234801561001057600080fd5b5060405160208062004a3683398101806040528101908080519060200190929190505050336000806101000a81548173ffffffffffffffffffffffffffffffffffffffff021916908373ffffffffffffffffffffffffffffffffffffffff160217905550600073ffffffffffffffffffffffffffffffffffffffff168173ffffffffffffffffffffffffffffffffffffffff1614151515610119576040517f08c379a000000000000000000000000000000000000000000000000000000000815260040180806020018281038252601b8152602001807f696e76616c6964205f636f6e74726f6c6c65722061646472657373000000000081525060200191505060405180910390fd5b80600260006101000a81548173ffffffffffffffffffffffffffffffffffffffff021916908373ffffffffffffffffffffffffffffffffffffffff160217905550806000806101000a81548173ffffffffffffffffffffffffffffffffffffffff021916908373ffffffffffffffffffffffffffffffffffffffff1602179055505061488b80620001ab6000396000f300608060405260043610610149576000357c0100000000000000000000000000000000000000000000000000000000900463ffffffff16806314990ace1461014e57806317ffc3201461020a5780632bf90baa1461024d578063311104f3146102965780633a0fa690146102c1578063424e65751461031457806342966c68146104835780634e71e0c8146104c857806353a6bd44146104df5780636406c10c1461059b578063715018a61461070a57806372f69a721461072157806373e6b0b81461074c578063861f92a8146107bf5780638da5cb5b146108085780638e24a7641461085f5780639355f0a4146108d45780639ad4b86b14610935578063b69b22d81461097a578063c06e2d2414610b4f578063c72551be14610b98578063e21c40c014610bdd578063e30c397814610db2578063f2fde38b14610e09578063f77c479114610e4c575b600080fd5b34801561015a57600080fd5b5061018f600480360381019080803573ffffffffffffffffffffffffffffffffffffffff169060200190929190505050610ea3565b6040518080602001828103825283818151815260200191508051906020019080838360005b838110156101cf5780820151818401526020810190506101b4565b50505050905090810190601f1680156101fc5780820380516001836020036101000a031916815260200191505b509250505060405180910390f35b34801561021657600080fd5b5061024b600480360381019080803573ffffffffffffffffffffffffffffffffffffffff169060200190929190505050610f53565b005b34801561025957600080fd5b5061027c60048036038101908080356000191690602001909291905050506110d8565b604051808215151515815260200191505060405180910390f35b3480156102a257600080fd5b506102ab611416565b6040518082815260200191505060405180910390f35b3480156102cd57600080fd5b506102fa600480360381019080803590602001908201803590602001919091929391929390505050611423565b604051808215151515815260200191505060405180910390f35b34801561032057600080fd5b5061033f60048036038101908080359060200190929190505050611595565b604051808873ffffffffffffffffffffffffffffffffffffffff1673ffffffffffffffffffffffffffffffffffffffff168152602001878152602001806020018060200186815260200185815260200184600381111561039b57fe5b60ff168152602001838103835288818151815260200191508051906020019080838360005b838110156103db5780820151818401526020810190506103c0565b50505050905090810190601f1680156104085780820380516001836020036101000a031916815260200191505b50838103825287818151815260200191508051906020019080838360005b83811015610441578082015181840152602081019050610426565b50505050905090810190601f16801561046e5780820380516001836020036101000a031916815260200191505b50995050505050505050505060405180910390f35b34801561048f57600080fd5b506104ae60048036038101908080359060200190929190505050611743565b604051808215151515815260200191505060405180910390f35b3480156104d457600080fd5b506104dd611f00565b005b3480156104eb57600080fd5b50610520600480360381019080803573ffffffffffffffffffffffffffffffffffffffff16906020019092919050505061209f565b6040518080602001828103825283818151815260200191508051906020019080838360005b83811015610560578082015181840152602081019050610545565b50505050905090810190601f16801561058d5780820380516001836020036101000a031916815260200191505b509250505060405180910390f35b3480156105a757600080fd5b506105c66004803603810190808035906020019092919050505061214f565b604051808873ffffffffffffffffffffffffffffffffffffffff1673ffffffffffffffffffffffffffffffffffffffff168152602001878152602001806020018060200186815260200185815260200184600381111561062257fe5b60ff168152602001838103835288818151815260200191508051906020019080838360005b83811015610662578082015181840152602081019050610647565b50505050905090810190601f16801561068f5780820380516001836020036101000a031916815260200191505b50838103825287818151815260200191508051906020019080838360005b838110156106c85780820151818401526020810190506106ad565b50505050905090810190601f1680156106f55780820380516001836020036101000a031916815260200191505b50995050505050505050505060405180910390f35b34801561071657600080fd5b5061071f6122fd565b005b34801561072d57600080fd5b506107366123ff565b6040518082815260200191505060405180910390f35b34801561075857600080fd5b506107a5600480360381019080803573ffffffffffffffffffffffffffffffffffffffff16906020019092919080359060200190820180359060200191909192939192939050505061240c565b604051808215151515815260200191505060405180910390f35b3480156107cb57600080fd5b506107ee6004803603810190808035600019169060200190929190505050612625565b604051808215151515815260200191505060405180910390f35b34801561081457600080fd5b5061081d6127e7565b604051808273ffffffffffffffffffffffffffffffffffffffff1673ffffffffffffffffffffffffffffffffffffffff16815260200191505060405180910390f35b34801561086b57600080fd5b506108ba6004803603810190808035906020019092919080359060200190820180359060200191909192939192939080359060200190820180359060200191909192939192939050505061280c565b604051808215151515815260200191505060405180910390f35b3480156108e057600080fd5b5061091b6004803603810190808035600019169060200190929190803590602001908201803590602001919091929391929390505050612d00565b604051808215151515815260200191505060405180910390f35b34801561094157600080fd5b5061096460048036038101908080356000191690602001909291905050506130da565b6040518082815260200191505060405180910390f35b34801561098657600080fd5b506109a5600480360381019080803590602001909291905050506130f2565b604051808981526020018873ffffffffffffffffffffffffffffffffffffffff1673ffffffffffffffffffffffffffffffffffffffff1681526020018781526020018060200180602001868152602001806020018560001916600019168152602001848103845289818151815260200191508051906020019080838360005b83811015610a3f578082015181840152602081019050610a24565b50505050905090810190601f168015610a6c5780820380516001836020036101000a031916815260200191505b50848103835288818151815260200191508051906020019080838360005b83811015610aa5578082015181840152602081019050610a8a565b50505050905090810190601f168015610ad25780820380516001836020036101000a031916815260200191505b50848103825286818151815260200191508051906020019080838360005b83811015610b0b578082015181840152602081019050610af0565b50505050905090810190601f168015610b385780820380516001836020036101000a031916815260200191505b509b50505050505050505050505060405180910390f35b348015610b5b57600080fd5b50610b7e600480360381019080803560001916906020019092919050505061336e565b604051808215151515815260200191505060405180910390f35b348015610ba457600080fd5b50610bc760048036038101908080356000191690602001909291905050506134fb565b6040518082815260200191505060405180910390f35b348015610be957600080fd5b50610c0860048036038101908080359060200190929190505050613513565b604051808981526020018873ffffffffffffffffffffffffffffffffffffffff1673ffffffffffffffffffffffffffffffffffffffff1681526020018781526020018060200180602001868152602001806020018560001916600019168152602001848103845289818151815260200191508051906020019080838360005b83811015610ca2578082015181840152602081019050610c87565b50505050905090810190601f168015610ccf5780820380516001836020036101000a031916815260200191505b50848103835288818151815260200191508051906020019080838360005b83811015610d08578082015181840152602081019050610ced565b50505050905090810190601f168015610d355780820380516001836020036101000a031916815260200191505b50848103825286818151815260200191508051906020019080838360005b83811015610d6e578082015181840152602081019050610d53565b50505050905090810190601f168015610d9b5780820380516001836020036101000a031916815260200191505b509b50505050505050505050505060405180910390f35b348015610dbe57600080fd5b50610dc76138e5565b604051808273ffffffffffffffffffffffffffffffffffffffff1673ffffffffffffffffffffffffffffffffffffffff16815260200191505060405180910390f35b348015610e1557600080fd5b50610e4a600480360381019080803573ffffffffffffffffffffffffffffffffffffffff16906020019092919050505061390b565b005b348015610e5857600080fd5b50610e616139aa565b604051808273ffffffffffffffffffffffffffffffffffffffff1673ffffffffffffffffffffffffffffffffffffffff16815260200191505060405180910390f35b60036020528060005260406000206000915090508054600181600116156101000203166002900480601f016020809104026020016040519081016040528092919081815260200182805460018160011615610100020316600290048015610f4b5780601f10610f2057610100808354040283529160200191610f4b565b820191906000526020600020905b815481529060010190602001808311610f2e57829003601f168201915b505050505081565b60008060009054906101000a900473ffffffffffffffffffffffffffffffffffffffff1673ffffffffffffffffffffffffffffffffffffffff163373ffffffffffffffffffffffffffffffffffffffff16141515610fb057600080fd5b8173ffffffffffffffffffffffffffffffffffffffff166370a08231306040518263ffffffff167c0100000000000000000000000000000000000000000000000000000000028152600401808273ffffffffffffffffffffffffffffffffffffffff1673ffffffffffffffffffffffffffffffffffffffff168152602001915050602060405180830381600087803b15801561104b57600080fd5b505af115801561105f573d6000803e3d6000fd5b505050506040513d602081101561107557600080fd5b810190808051906020019092919050505090506110d46000809054906101000a900473ffffffffffffffffffffffffffffffffffffffff16828473ffffffffffffffffffffffffffffffffffffffff166139d09092919063ffffffff16565b5050565b6000806110e36146db565b6110ec84613abe565b8092508193505050600260078381548110151561110557fe5b906000526020600020906007020160060160006101000a81548160ff0219169083600381111561113157fe5b0217905550600260009054906101000a900473ffffffffffffffffffffffffffffffffffffffff1673ffffffffffffffffffffffffffffffffffffffff166340c10f19826000015183602001516040518363ffffffff167c0100000000000000000000000000000000000000000000000000000000028152600401808373ffffffffffffffffffffffffffffffffffffffff1673ffffffffffffffffffffffffffffffffffffffff16815260200182815260200192505050602060405180830381600087803b15801561120357600080fd5b505af1158015611217573d6000803e3d6000fd5b505050506040513d602081101561122d57600080fd5b810190808051906020019092919050505015156112b2576040517f08c379a000000000000000000000000000000000000000000000000000000000815260040180806020018281038252600b8152602001807f6d696e74206661696c656400000000000000000000000000000000000000000081525060200191505060405180910390fd5b806000015173ffffffffffffffffffffffffffffffffffffffff1681608001517f051f4ba27061b0e6dc829669a7baa8bba9cf7f6cd2f95e1f0bdd9c22126d8b218360200151846040015185606001518660a001518a6040518086815260200180602001806020018581526020018460001916600019168152602001838103835287818151815260200191508051906020019080838360005b8381101561136657808201518184015260208101905061134b565b50505050905090810190601f1680156113935780820380516001836020036101000a031916815260200191505b50838103825286818151815260200191508051906020019080838360005b838110156113cc5780820151818401526020810190506113b1565b50505050905090810190601f1680156113f95780820380516001836020036101000a031916815260200191505b5097505050505050505060405180910390a3600192505050919050565b6000600780549050905090565b600061146083838080601f016020809104026020016040519081016040528093929190818152602001838380828437820191505050505050613d85565b1515156114d5576040517f08c379a000000000000000000000000000000000000000000000000000000000815260040180806020018281038252601d8152602001807f696e76616c6964206173736574206465706f736974206164647265737300000081525060200191505060405180910390fd5b8282600460003373ffffffffffffffffffffffffffffffffffffffff1673ffffffffffffffffffffffffffffffffffffffff168152602001908152602001600020919061152392919061473a565b503373ffffffffffffffffffffffffffffffffffffffff167e2710e4743caa591c537cdab906e6a5d0f6466c6dcff14aeadeb4165f4252e38484604051808060200182810382528484828181526020019250808284378201915050935050505060405180910390a26001905092915050565b6007818154811015156115a457fe5b90600052602060002090600702016000915090508060000160009054906101000a900473ffffffffffffffffffffffffffffffffffffffff1690806001015490806002018054600181600116156101000203166002900480601f01602080910402602001604051908101604052809291908181526020018280546001816001161561010002031660029004801561167c5780601f106116515761010080835404028352916020019161167c565b820191906000526020600020905b81548152906001019060200180831161165f57829003601f168201915b505050505090806003018054600181600116156101000203166002900480601f01602080910402602001604051908101604052809291908181526020018280546001816001161561010002031660029004801561171a5780601f106116ef5761010080835404028352916020019161171a565b820191906000526020600020905b8154815290600101906020018083116116fd57829003601f168201915b5050505050908060040154908060050154908060060160009054906101000a900460ff16905087565b6000606060008060606117546146db565b6000600460003373ffffffffffffffffffffffffffffffffffffffff1673ffffffffffffffffffffffffffffffffffffffff1681526020019081526020016000208054600181600116156101000203166002900480601f0160208091040260200160405190810160405280929190818152602001828054600181600116156101000203166002900480156118295780601f106117fe57610100808354040283529160200191611829565b820191906000526020600020905b81548152906001019060200180831161180c57829003601f168201915b5050505050955061183986613d85565b1515156118d4576040517f08c379a000000000000000000000000000000000000000000000000000000000815260040180806020018281038252602a8152602001807f6d65726368616e74206173736574206465706f7369742061646472657373207781526020017f6173206e6f74207365740000000000000000000000000000000000000000000081525060400191505060405180910390fd5b60088054905094506118e4613da8565b93506020604051908101604052806000815250925060e0604051908101604052803373ffffffffffffffffffffffffffffffffffffffff1681526020018981526020018781526020018481526020018681526020018581526020016000600381111561194c57fe5b815250915061195a82613db0565b905084600660008360001916600019168152602001908152602001600020819055506008829080600181540180825580915050906001820390600052602060002090600702016000909192909190915060008201518160000160006101000a81548173ffffffffffffffffffffffffffffffffffffffff021916908373ffffffffffffffffffffffffffffffffffffffff160217905550602082015181600101556040820151816002019080519060200190611a179291906147ba565b506060820151816003019080519060200190611a349291906147ba565b506080820151816004015560a0820151816005015560c08201518160060160006101000a81548160ff02191690836003811115611a6d57fe5b0217905550505050600260009054906101000a900473ffffffffffffffffffffffffffffffffffffffff1673ffffffffffffffffffffffffffffffffffffffff166321df0da76040518163ffffffff167c0100000000000000000000000000000000000000000000000000000000028152600401602060405180830381600087803b158015611afb57600080fd5b505af1158015611b0f573d6000803e3d6000fd5b505050506040513d6020811015611b2557600080fd5b810190808051906020019092919050505073ffffffffffffffffffffffffffffffffffffffff166323b872dd33600260009054906101000a900473ffffffffffffffffffffffffffffffffffffffff168b6040518463ffffffff167c0100000000000000000000000000000000000000000000000000000000028152600401808473ffffffffffffffffffffffffffffffffffffffff1673ffffffffffffffffffffffffffffffffffffffff1681526020018373ffffffffffffffffffffffffffffffffffffffff1673ffffffffffffffffffffffffffffffffffffffff1681526020018281526020019350505050602060405180830381600087803b158015611c2e57600080fd5b505af1158015611c42573d6000803e3d6000fd5b505050506040513d6020811015611c5857600080fd5b81019080805190602001909291905050501515611cdd576040517f08c379a000000000000000000000000000000000000000000000000000000000815260040180806020018281038252601e8152602001807f7472616e7366657220746f6b656e7320746f206275726e206661696c6564000081525060200191505060405180910390fd5b600260009054906101000a900473ffffffffffffffffffffffffffffffffffffffff1673ffffffffffffffffffffffffffffffffffffffff166342966c68896040518263ffffffff167c010000000000000000000000000000000000000000000000000000000002815260040180828152602001915050602060405180830381600087803b158015611d6e57600080fd5b505af1158015611d82573d6000803e3d6000fd5b505050506040513d6020811015611d9857600080fd5b81019080805190602001909291905050501515611e1d576040517f08c379a000000000000000000000000000000000000000000000000000000000815260040180806020018281038252600b8152602001807f6275726e206661696c656400000000000000000000000000000000000000000081525060200191505060405180910390fd5b3373ffffffffffffffffffffffffffffffffffffffff16857f865e64c3fa22a0daee479fc02875d3e97d581930b9679232344d4d5dcce6a7b28a89888660405180858152602001806020018481526020018360001916600019168152602001828103825285818151815260200191508051906020019080838360005b83811015611eb4578082015181840152602081019050611e99565b50505050905090810190601f168015611ee15780820380516001836020036101000a031916815260200191505b509550505050505060405180910390a360019650505050505050919050565b600160009054906101000a900473ffffffffffffffffffffffffffffffffffffffff1673ffffffffffffffffffffffffffffffffffffffff163373ffffffffffffffffffffffffffffffffffffffff16141515611f5c57600080fd5b600160009054906101000a900473ffffffffffffffffffffffffffffffffffffffff1673ffffffffffffffffffffffffffffffffffffffff166000809054906101000a900473ffffffffffffffffffffffffffffffffffffffff1673ffffffffffffffffffffffffffffffffffffffff167f8be0079c531659141344cd1fd0a4f28419497f9722a3daafe3b4186f6b6457e060405160405180910390a3600160009054906101000a900473ffffffffffffffffffffffffffffffffffffffff166000806101000a81548173ffffffffffffffffffffffffffffffffffffffff021916908373ffffffffffffffffffffffffffffffffffffffff1602179055506000600160006101000a81548173ffffffffffffffffffffffffffffffffffffffff021916908373ffffffffffffffffffffffffffffffffffffffff160217905550565b60046020528060005260406000206000915090508054600181600116156101000203166002900480601f0160208091040260200160405190810160405280929190818152602001828054600181600116156101000203166002900480156121475780601f1061211c57610100808354040283529160200191612147565b820191906000526020600020905b81548152906001019060200180831161212a57829003601f168201915b505050505081565b60088181548110151561215e57fe5b90600052602060002090600702016000915090508060000160009054906101000a900473ffffffffffffffffffffffffffffffffffffffff1690806001015490806002018054600181600116156101000203166002900480601f0160208091040260200160405190810160405280929190818152602001828054600181600116156101000203166002900480156122365780601f1061220b57610100808354040283529160200191612236565b820191906000526020600020905b81548152906001019060200180831161221957829003601f168201915b505050505090806003018054600181600116156101000203166002900480601f0160208091040260200160405190810160405280929190818152602001828054600181600116156101000203166002900480156122d45780601f106122a9576101008083540402835291602001916122d4565b820191906000526020600020905b8154815290600101906020018083116122b757829003601f168201915b5050505050908060040154908060050154908060060160009054906101000a900460ff16905087565b6000809054906101000a900473ffffffffffffffffffffffffffffffffffffffff1673ffffffffffffffffffffffffffffffffffffffff163373ffffffffffffffffffffffffffffffffffffffff1614151561235857600080fd5b6000809054906101000a900473ffffffffffffffffffffffffffffffffffffffff1673ffffffffffffffffffffffffffffffffffffffff167ff8df31144d9c2f0f6b59d69b8b98abd5459d07f2742c4df920b25aae33c6482060405160405180910390a260008060006101000a81548173ffffffffffffffffffffffffffffffffffffffff021916908373ffffffffffffffffffffffffffffffffffffffff160217905550565b6000600880549050905090565b6000808473ffffffffffffffffffffffffffffffffffffffff161415151561249c576040517f08c379a00000000000000000000000000000000000000000000000000000000081526004018080602001828103825260188152602001807f696e76616c6964206d65726368616e742061646472657373000000000000000081525060200191505060405180910390fd5b6124d783838080601f016020809104026020016040519081016040528093929190818152602001838380828437820191505050505050613d85565b15151561254c576040517f08c379a000000000000000000000000000000000000000000000000000000000815260040180806020018281038252601d8152602001807f696e76616c6964206173736574206465706f736974206164647265737300000081525060200191505060405180910390fd5b8282600360008773ffffffffffffffffffffffffffffffffffffffff1673ffffffffffffffffffffffffffffffffffffffff168152602001908152602001600020919061259a92919061473a565b503373ffffffffffffffffffffffffffffffffffffffff168473ffffffffffffffffffffffffffffffffffffffff167f889518f7687592efeb6e775822956ccb4e2a41cfb5bab0438d634523ccf6336d8585604051808060200182810382528484828181526020019250808284378201915050935050505060405180910390a3600190509392505050565b6000806126306146db565b61263984613abe565b8092508193505050600360078381548110151561265257fe5b906000526020600020906007020160060160006101000a81548160ff0219169083600381111561267e57fe5b0217905550806000015173ffffffffffffffffffffffffffffffffffffffff1681608001517fdadc06f5b98131083e96b856c044184efd23ae2e797a876fd80aa5dae4f724558360200151846040015185606001518660a001518a6040518086815260200180602001806020018581526020018460001916600019168152602001838103835287818151815260200191508051906020019080838360005b8381101561273757808201518184015260208101905061271c565b50505050905090810190601f1680156127645780820380516001836020036101000a031916815260200191505b50838103825286818151815260200191508051906020019080838360005b8381101561279d578082015181840152602081019050612782565b50505050905090810190601f1680156127ca5780820380516001836020036101000a031916815260200191505b5097505050505050505060405180910390a3600192505050919050565b6000809054906101000a900473ffffffffffffffffffffffffffffffffffffffff1681565b60008060006128196146db565b600061285687878080601f016020809104026020016040519081016040528093929190818152602001838380828437820191505050505050613d85565b1515156128cb576040517f08c379a000000000000000000000000000000000000000000000000000000000815260040180806020018281038252601d8152602001807f696e76616c6964206173736574206465706f736974206164647265737300000081525060200191505060405180910390fd5b6129de87878080601f016020809104026020016040519081016040528093929190818152602001838380828437820191505050505050600360003373ffffffffffffffffffffffffffffffffffffffff1673ffffffffffffffffffffffffffffffffffffffff1681526020019081526020016000208054600181600116156101000203166002900480601f0160208091040260200160405190810160405280929190818152602001828054600181600116156101000203166002900480156129d45780601f106129a9576101008083540402835291602001916129d4565b820191906000526020600020905b8154815290600101906020018083116129b757829003601f168201915b5050505050613f71565b1515612a52576040517f08c379a000000000000000000000000000000000000000000000000000000000815260040180806020018281038252601b8152602001807f77726f6e67206173736574206465706f7369742061646472657373000000000081525060200191505060405180910390fd5b6007805490509350612a62613da8565b925060e0604051908101604052803373ffffffffffffffffffffffffffffffffffffffff1681526020018b815260200188888080601f01602080910402602001604051908101604052809392919081815260200183838082843782019150505050505081526020018a8a8080601f016020809104026020016040519081016040528093929190818152602001838380828437820191505050505050815260200185815260200184815260200160006003811115612b1b57fe5b8152509150612b2982613db0565b905083600560008360001916600019168152602001908152602001600020819055506007829080600181540180825580915050906001820390600052602060002090600702016000909192909190915060008201518160000160006101000a81548173ffffffffffffffffffffffffffffffffffffffff021916908373ffffffffffffffffffffffffffffffffffffffff160217905550602082015181600101556040820151816002019080519060200190612be69291906147ba565b506060820151816003019080519060200190612c039291906147ba565b506080820151816004015560a0820151816005015560c08201518160060160006101000a81548160ff02191690836003811115612c3c57fe5b02179055505050503373ffffffffffffffffffffffffffffffffffffffff16847f09e00024b3e14e42d4e78c05bf370a34c2e4ce4027dad38abafdb1bf49da432f8c8a8a8e8e8a8960405180888152602001806020018060200185815260200184600019166000191681526020018381038352898982818152602001925080828437820191505083810382528787828181526020019250808284378201915050995050505050505050505060405180910390a3600194505050505095945050505050565b600080612d0b6146db565b612d1486614122565b80925081935050508484600884815481101515612d2d57fe5b90600052602060002090600702016003019190612d4b92919061473a565b506002600883815481101515612d5d57fe5b906000526020600020906007020160060160006101000a81548160ff02191690836003811115612d8957fe5b02179055508160066000612fa9600886815481101515612da557fe5b906000526020600020906007020160e060405190810160405290816000820160009054906101000a900473ffffffffffffffffffffffffffffffffffffffff1673ffffffffffffffffffffffffffffffffffffffff1673ffffffffffffffffffffffffffffffffffffffff16815260200160018201548152602001600282018054600181600116156101000203166002900480601f016020809104026020016040519081016040528092919081815260200182805460018160011615610100020316600290048015612eb85780601f10612e8d57610100808354040283529160200191612eb8565b820191906000526020600020905b815481529060010190602001808311612e9b57829003601f168201915b50505050508152602001600382018054600181600116156101000203166002900480601f016020809104026020016040519081016040528092919081815260200182805460018160011615610100020316600290048015612f5a5780601f10612f2f57610100808354040283529160200191612f5a565b820191906000526020600020905b815481529060010190602001808311612f3d57829003601f168201915b5050505050815260200160048201548152602001600582015481526020016006820160009054906101000a900460ff166003811115612f9557fe5b6003811115612fa057fe5b81525050613db0565b6000191660001916815260200190815260200160002081905550806000015173ffffffffffffffffffffffffffffffffffffffff1681608001517f1949e77206780c38f7c6487c926f8a51280fcdbf63397a01a3428dbfccd2b09f8360200151846040015189898760a001518d6040518087815260200180602001806020018581526020018460001916600019168152602001838103835288818151815260200191508051906020019080838360005b83811015613074578082015181840152602081019050613059565b50505050905090810190601f1680156130a15780820380516001836020036101000a031916815260200191505b50838103825287878281815260200192508082843782019150509850505050505050505060405180910390a36001925050509392505050565b60056020528060005260406000206000915090505481565b60008060006060806000606060006131086146db565b606060078b81548110151561311957fe5b906000526020600020906007020160e060405190810160405290816000820160009054906101000a900473ffffffffffffffffffffffffffffffffffffffff1673ffffffffffffffffffffffffffffffffffffffff1673ffffffffffffffffffffffffffffffffffffffff16815260200160018201548152602001600282018054600181600116156101000203166002900480601f01602080910402602001604051908101604052809291908181526020018280546001816001161561010002031660029004801561322c5780601f106132015761010080835404028352916020019161322c565b820191906000526020600020905b81548152906001019060200180831161320f57829003601f168201915b50505050508152602001600382018054600181600116156101000203166002900480601f0160208091040260200160405190810160405280929190818152602001828054600181600116156101000203166002900480156132ce5780601f106132a3576101008083540402835291602001916132ce565b820191906000526020600020905b8154815290600101906020018083116132b157829003601f168201915b5050505050815260200160048201548152602001600582015481526020016006820160009054906101000a900460ff16600381111561330957fe5b600381111561331457fe5b8152505091506133278260c001516143e9565b905081608001519950816000015198508160200151975081604001519650816060015195508160a00151945080935061335f82613db0565b92505050919395975091939597565b6000806133796146db565b61338284613abe565b8092508193505050806000015173ffffffffffffffffffffffffffffffffffffffff163373ffffffffffffffffffffffffffffffffffffffff16141515613457576040517f08c379a00000000000000000000000000000000000000000000000000000000081526004018080602001828103825260398152602001807f63616e63656c2073656e64657220697320646966666572656e74207468616e2081526020017f70656e64696e67207265717565737420696e69746961746f720000000000000081525060400191505060405180910390fd5b600160078381548110151561346857fe5b906000526020600020906007020160060160006101000a81548160ff0219169083600381111561349457fe5b02179055503373ffffffffffffffffffffffffffffffffffffffff16827fb419f275eebfa354bbab2709955ee0c0e25ca95fae50a8e3672c5e3d9c931f588660405180826000191660001916815260200191505060405180910390a3600192505050919050565b60066020528060005260406000206000915090505481565b600080600060608060006060600080606060088b81548110151561353357fe5b9060005260206000209060070201915061355d8260060160009054906101000a900460ff166143e9565b9050816004015499508160000160009054906101000a900473ffffffffffffffffffffffffffffffffffffffff16985081600101549750816002018054600181600116156101000203166002900480601f01602080910402602001604051908101604052809291908181526020018280546001816001161561010002031660029004801561362c5780601f106136015761010080835404028352916020019161362c565b820191906000526020600020905b81548152906001019060200180831161360f57829003601f168201915b50505050509650816003018054600181600116156101000203166002900480601f0160208091040260200160405190810160405280929190818152602001828054600181600116156101000203166002900480156136cb5780601f106136a0576101008083540402835291602001916136cb565b820191906000526020600020905b8154815290600101906020018083116136ae57829003601f168201915b50505050509550816005015494508093506138d68260e060405190810160405290816000820160009054906101000a900473ffffffffffffffffffffffffffffffffffffffff1673ffffffffffffffffffffffffffffffffffffffff1673ffffffffffffffffffffffffffffffffffffffff16815260200160018201548152602001600282018054600181600116156101000203166002900480601f0160208091040260200160405190810160405280929190818152602001828054600181600116156101000203166002900480156137e55780601f106137ba576101008083540402835291602001916137e5565b820191906000526020600020905b8154815290600101906020018083116137c857829003601f168201915b50505050508152602001600382018054600181600116156101000203166002900480601f0160208091040260200160405190810160405280929190818152602001828054600181600116156101000203166002900480156138875780601f1061385c57610100808354040283529160200191613887565b820191906000526020600020905b81548152906001019060200180831161386a57829003601f168201915b5050505050815260200160048201548152602001600582015481526020016006820160009054906101000a900460ff1660038111156138c257fe5b60038111156138cd57fe5b81525050613db0565b92505050919395975091939597565b600160009054906101000a900473ffffffffffffffffffffffffffffffffffffffff1681565b6000809054906101000a900473ffffffffffffffffffffffffffffffffffffffff1673ffffffffffffffffffffffffffffffffffffffff163373ffffffffffffffffffffffffffffffffffffffff1614151561396657600080fd5b80600160006101000a81548173ffffffffffffffffffffffffffffffffffffffff021916908373ffffffffffffffffffffffffffffffffffffffff16021790555050565b600260009054906101000a900473ffffffffffffffffffffffffffffffffffffffff1681565b8273ffffffffffffffffffffffffffffffffffffffff1663a9059cbb83836040518363ffffffff167c0100000000000000000000000000000000000000000000000000000000028152600401808373ffffffffffffffffffffffffffffffffffffffff1673ffffffffffffffffffffffffffffffffffffffff16815260200182815260200192505050602060405180830381600087803b158015613a7357600080fd5b505af1158015613a87573d6000803e3d6000fd5b505050506040513d6020811015613a9d57600080fd5b81019080805190602001909291905050501515613ab957600080fd5b505050565b6000613ac86146db565b6000600102836000191614151515613b48576040517f08c379a00000000000000000000000000000000000000000000000000000000081526004018080602001828103825260118152602001807f726571756573742068617368206973203000000000000000000000000000000081525060200191505060405180910390fd5b600560008460001916600019168152602001908152602001600020549150600782815481101515613b7557fe5b906000526020600020906007020160e060405190810160405290816000820160009054906101000a900473ffffffffffffffffffffffffffffffffffffffff1673ffffffffffffffffffffffffffffffffffffffff1673ffffffffffffffffffffffffffffffffffffffff16815260200160018201548152602001600282018054600181600116156101000203166002900480601f016020809104026020016040519081016040528092919081815260200182805460018160011615610100020316600290048015613c885780601f10613c5d57610100808354040283529160200191613c88565b820191906000526020600020905b815481529060010190602001808311613c6b57829003601f168201915b50505050508152602001600382018054600181600116156101000203166002900480601f016020809104026020016040519081016040528092919081815260200182805460018160011615610100020316600290048015613d2a5780601f10613cff57610100808354040283529160200191613d2a565b820191906000526020600020905b815481529060010190602001808311613d0d57829003601f168201915b5050505050815260200160048201548152602001600582015481526020016006820160009054906101000a900460ff166003811115613d6557fe5b6003811115613d7057fe5b815250509050613d808184614598565b915091565b6000613da1826020604051908101604052806000815250613f71565b9050919050565b600042905090565b6000816000015182602001518360400151846060015185608001518660a00151604051602001808773ffffffffffffffffffffffffffffffffffffffff1673ffffffffffffffffffffffffffffffffffffffff1681526020018681526020018060200180602001858152602001848152602001838103835287818151815260200191508051906020019080838360005b83811015613e5b578082015181840152602081019050613e40565b50505050905090810190601f168015613e885780820380516001836020036101000a031916815260200191505b50838103825286818151815260200191508051906020019080838360005b83811015613ec1578082015181840152602081019050613ea6565b50505050905090810190601f168015613eee5780820380516001836020036101000a031916815260200191505b50985050505050505050506040516020818303038152906040526040518082805190602001908083835b602083101515613f3d5780518252602082019150602081019050602083039250613f18565b6001836020036101000a03801982511681845116808217855250505050505090500191505060405180910390209050919050565b6000816040516020018082805190602001908083835b602083101515613fac5780518252602082019150602081019050602083039250613f87565b6001836020036101000a0380198251168184511680821785525050505050509050019150506040516020818303038152906040526040518082805190602001908083835b6020831015156140155780518252602082019150602081019050602083039250613ff0565b6001836020036101000a038019825116818451168082178552505050505050905001915050604051809103902060001916836040516020018082805190602001908083835b60208310151561407f578051825260208201915060208101905060208303925061405a565b6001836020036101000a0380198251168184511680821785525050505050509050019150506040516020818303038152906040526040518082805190602001908083835b6020831015156140e857805182526020820191506020810190506020830392506140c3565b6001836020036101000a03801982511681845116808217855250505050505090500191505060405180910390206000191614905092915050565b600061412c6146db565b60006001028360001916141515156141ac576040517f08c379a00000000000000000000000000000000000000000000000000000000081526004018080602001828103825260118152602001807f726571756573742068617368206973203000000000000000000000000000000081525060200191505060405180910390fd5b6006600084600019166000191681526020019081526020016000205491506008828154811015156141d957fe5b906000526020600020906007020160e060405190810160405290816000820160009054906101000a900473ffffffffffffffffffffffffffffffffffffffff1673ffffffffffffffffffffffffffffffffffffffff1673ffffffffffffffffffffffffffffffffffffffff16815260200160018201548152602001600282018054600181600116156101000203166002900480601f0160208091040260200160405190810160405280929190818152602001828054600181600116156101000203166002900480156142ec5780601f106142c1576101008083540402835291602001916142ec565b820191906000526020600020905b8154815290600101906020018083116142cf57829003601f168201915b50505050508152602001600382018054600181600116156101000203166002900480601f01602080910402602001604051908101604052809291908181526020018280546001816001161561010002031660029004801561438e5780601f106143635761010080835404028352916020019161438e565b820191906000526020600020905b81548152906001019060200180831161437157829003601f168201915b5050505050815260200160048201548152602001600582015481526020016006820160009054906101000a900460ff1660038111156143c957fe5b60038111156143d457fe5b8152505090506143e48184614598565b915091565b6060600060038111156143f857fe5b82600381111561440457fe5b1415614447576040805190810160405280600781526020017f70656e64696e67000000000000000000000000000000000000000000000000008152509050614593565b6001600381111561445457fe5b82600381111561446057fe5b14156144a3576040805190810160405280600881526020017f63616e63656c65640000000000000000000000000000000000000000000000008152509050614593565b600260038111156144b057fe5b8260038111156144bc57fe5b14156144ff576040805190810160405280600881526020017f617070726f7665640000000000000000000000000000000000000000000000008152509050614593565b60038081111561450b57fe5b82600381111561451757fe5b141561455a576040805190810160405280600881526020017f72656a65637465640000000000000000000000000000000000000000000000008152509050614593565b6040805190810160405280600781526020017f756e6b6e6f776e0000000000000000000000000000000000000000000000000081525090505b919050565b600060038111156145a557fe5b8260c0015160038111156145b557fe5b14151561462a576040517f08c379a00000000000000000000000000000000000000000000000000000000081526004018080602001828103825260168152602001807f72657175657374206973206e6f742070656e64696e670000000000000000000081525060200191505060405180910390fd5b61463382613db0565b6000191681600019161415156146d7576040517f08c379a00000000000000000000000000000000000000000000000000000000081526004018080602001828103825260338152602001807f676976656e2072657175657374206861736820646f6573206e6f74206d61746381526020017f6820612070656e64696e6720726571756573740000000000000000000000000081525060400191505060405180910390fd5b5050565b60e060405190810160405280600073ffffffffffffffffffffffffffffffffffffffff16815260200160008152602001606081526020016060815260200160008152602001600081526020016000600381111561473457fe5b81525090565b828054600181600116156101000203166002900490600052602060002090601f016020900481019282601f1061477b57803560ff19168380011785556147a9565b828001600101855582156147a9579182015b828111156147a857823582559160200191906001019061478d565b5b5090506147b6919061483a565b5090565b828054600181600116156101000203166002900490600052602060002090601f016020900481019282601f106147fb57805160ff1916838001178555614829565b82800160010185558215614829579182015b8281111561482857825182559160200191906001019061480d565b5b509050614836919061483a565b5090565b61485c91905b80821115614858576000816000905550600101614840565b5090565b905600a165627a7a723058200a73c08cf2338a7dbd26cfd96a0f3f705cd2b75c3e591475a607d2a5f43dbe3c0029",
  "source": "pragma solidity 0.4.24;\n\nimport \"../utils/OwnableContract.sol\";\nimport \"../controller/ControllerInterface.sol\";\n\n\ncontract Factory is OwnableContract {\n\n    enum RequestStatus {PENDING, CANCELED, APPROVED, REJECTED}\n\n    struct Request {\n        address requester; // sender of the request.\n        uint amount; // amount of token to mint/burn.\n        string depositAddress; // custodian's asset address in mint, merchant's asset address in burn.\n        string txid; // asset txid for sending/redeeming asset in the mint/burn process.\n        uint nonce; // serial number allocated for each request.\n        uint timestamp; // time of the request creation.\n        RequestStatus status; // status of the request.\n    }\n\n    ControllerInterface public controller;\n\n    // mapping between merchant to the corresponding custodian deposit address, used in the minting process.\n    // by using a different deposit address per merchant the custodian can identify which merchant deposited.\n    mapping(address=>string) public custodianDepositAddress;\n\n    // mapping between merchant to the its deposit address where the asset should be moved to, used in the burning process.\n    mapping(address=>string)\n    public merchantDepositAddress;\n\n    // mapping between a mint request hash and the corresponding request nonce. \n    mapping(bytes32=>uint) public mintRequestNonce;\n\n    // mapping between a burn request hash and the corresponding request nonce.\n    mapping(bytes32=>uint) public burnRequestNonce;\n\n    Request[] public mintRequests;\n    Request[] public burnRequests;\n\n    constructor(ControllerInterface _controller) public {\n        require(_controller != address(0), \"invalid _controller address\");\n        controller = _controller;\n        owner = _controller;\n    }\n\n    modifier onlyMerchant() {\n        require(controller.isMerchant(msg.sender), \"sender not a merchant.\");\n        _;\n    }\n\n    modifier onlyCustodian() {\n        require(controller.isCustodian(msg.sender), \"sender not a custodian.\");\n        _;\n    }\n\n    event CustodianDepositAddressSet(address indexed merchant, address indexed sender, string depositAddress);\n\n    function setCustodianDepositAddress(\n        address merchant,\n        string depositAddress\n    )\n        external\n        returns (bool) \n    {\n        require(merchant != 0, \"invalid merchant address\");\n        require(!isEmptyString(depositAddress), \"invalid asset deposit address\");\n\n        custodianDepositAddress[merchant] = depositAddress;\n        emit CustodianDepositAddressSet(merchant, msg.sender, depositAddress);\n        return true;\n    }\n\n    event MerchantDepositAddressSet(address indexed merchant, string depositAddress);\n\n    function setMerchantDepositAddress(string depositAddress) external  returns (bool) {\n        require(!isEmptyString(depositAddress), \"invalid asset deposit address\");\n\n        merchantDepositAddress[msg.sender] = depositAddress;\n        emit MerchantDepositAddressSet(msg.sender, depositAddress);\n        return true; \n    }\n\n    event MintRequestAdd(\n        uint indexed nonce,\n        address indexed requester,\n        uint amount,\n        string depositAddress,\n        string txid,\n        uint timestamp,\n        bytes32 requestHash\n    );\n\n    function addMintRequest(\n        uint amount,\n        string txid,\n        string depositAddress\n    )\n        external\n        returns (bool)\n    {\n        require(!isEmptyString(depositAddress), \"invalid asset deposit address\"); \n        require(compareStrings(depositAddress, custodianDepositAddress[msg.sender]), \"wrong asset deposit address\");\n\n        uint nonce = mintRequests.length;\n        uint timestamp = getTimestamp();\n\n        Request memory request = Request({\n            requester: msg.sender,\n            amount: amount,\n            depositAddress: depositAddress,\n            txid: txid,\n            nonce: nonce,\n            timestamp: timestamp,\n            status: RequestStatus.PENDING\n        });\n\n        bytes32 requestHash = calcRequestHash(request);\n        mintRequestNonce[requestHash] = nonce; \n        mintRequests.push(request);\n\n        emit MintRequestAdd(nonce, msg.sender, amount, depositAddress, txid, timestamp, requestHash);\n        return true;\n    }\n\n    event MintRequestCancel(uint indexed nonce, address indexed requester, bytes32 requestHash);\n\n    function cancelMintRequest(bytes32 requestHash) external returns (bool) {\n        uint nonce;\n        Request memory request;\n\n        (nonce, request) = getPendingMintRequest(requestHash);\n\n        require(msg.sender == request.requester, \"cancel sender is different than pending request initiator\");\n        mintRequests[nonce].status = RequestStatus.CANCELED;\n\n        emit MintRequestCancel(nonce, msg.sender, requestHash);\n        return true;\n    }\n\n    event MintConfirmed(\n        uint indexed nonce,\n        address indexed requester,\n        uint amount,\n        string depositAddress,\n        string txid,\n        uint timestamp,\n        bytes32 requestHash\n    );\n\n    function confirmMintRequest(bytes32 requestHash) external returns (bool) {\n        uint nonce;\n        Request memory request;\n\n        (nonce, request) = getPendingMintRequest(requestHash);\n\n        mintRequests[nonce].status = RequestStatus.APPROVED;\n        require(controller.mint(request.requester, request.amount), \"mint failed\");\n\n        emit MintConfirmed(\n            request.nonce,\n            request.requester,\n            request.amount,\n            request.depositAddress,\n            request.txid,\n            request.timestamp,\n            requestHash\n        );\n        return true;\n    }\n\n    event MintRejected(\n        uint indexed nonce,\n        address indexed requester,\n        uint amount,\n        string depositAddress,\n        string txid,\n        uint timestamp,\n        bytes32 requestHash\n    );\n\n    function rejectMintRequest(bytes32 requestHash) external returns (bool) {\n        uint nonce;\n        Request memory request;\n\n        (nonce, request) = getPendingMintRequest(requestHash);\n\n        mintRequests[nonce].status = RequestStatus.REJECTED;\n\n        emit MintRejected(\n            request.nonce,\n            request.requester,\n            request.amount,\n            request.depositAddress,\n            request.txid,\n            request.timestamp,\n            requestHash\n        );\n        return true;\n    }\n\n    event Burned(\n        uint indexed nonce,\n        address indexed requester,\n        uint amount,\n        string depositAddress,\n        uint timestamp,\n        bytes32 requestHash\n    );\n\n    function burn(uint amount) external returns (bool) {\n        string memory depositAddress = merchantDepositAddress[msg.sender];\n        require(!isEmptyString(depositAddress), \"merchant asset deposit address was not set\"); \n\n        uint nonce = burnRequests.length;\n        uint timestamp = getTimestamp();\n\n        // set txid as empty since it is not known yet.\n        string memory txid = \"\";\n\n        Request memory request = Request({\n            requester: msg.sender,\n            amount: amount,\n            depositAddress: depositAddress,\n            txid: txid,\n            nonce: nonce,\n            timestamp: timestamp,\n            status: RequestStatus.PENDING\n        });\n\n        bytes32 requestHash = calcRequestHash(request);\n        burnRequestNonce[requestHash] = nonce; \n        burnRequests.push(request);\n\n        require(controller.getToken().transferFrom(msg.sender, controller, amount), \"transfer tokens to burn failed\");\n        require(controller.burn(amount), \"burn failed\");\n\n        emit Burned(nonce, msg.sender, amount, depositAddress, timestamp, requestHash);\n        return true;\n    }\n\n    event BurnConfirmed(\n        uint indexed nonce,\n        address indexed requester,\n        uint amount,\n        string depositAddress,\n        string txid,\n        uint timestamp,\n        bytes32 inputRequestHash\n    );\n\n    function confirmBurnRequest(bytes32 requestHash, string txid) external returns (bool) {\n        uint nonce;\n        Request memory request;\n\n        (nonce, request) = getPendingBurnRequest(requestHash);\n\n        burnRequests[nonce].txid = txid;\n        burnRequests[nonce].status = RequestStatus.APPROVED;\n        burnRequestNonce[calcRequestHash(burnRequests[nonce])] = nonce;\n\n        emit BurnConfirmed(\n            request.nonce,\n            request.requester,\n            request.amount,\n            request.depositAddress,\n            txid,\n            request.timestamp,\n            requestHash\n        );\n        return true;\n    }\n\n    function getMintRequest(uint nonce)\n        external\n        view\n        returns (\n            uint requestNonce,\n            address requester,\n            uint amount,\n            string depositAddress,\n            string txid,\n            uint timestamp,\n            string status,\n            bytes32 requestHash\n        )\n    {\n        Request memory request = mintRequests[nonce];\n        string memory statusString = getStatusString(request.status); \n\n        requestNonce = request.nonce;\n        requester = request.requester;\n        amount = request.amount;\n        depositAddress = request.depositAddress;\n        txid = request.txid;\n        timestamp = request.timestamp;\n        status = statusString;\n        requestHash = calcRequestHash(request);\n    }\n\n    function getMintRequestsLength() external view returns (uint length) {\n        return mintRequests.length;\n    }\n\n    function getBurnRequest(uint nonce)\n        external\n        view\n        returns (\n            uint requestNonce,\n            address requester,\n            uint amount,\n            string depositAddress,\n            string txid,\n            uint timestamp,\n            string status,\n            bytes32 requestHash\n        )\n    {\n        Request storage request = burnRequests[nonce];\n        string memory statusString = getStatusString(request.status); \n\n        requestNonce = request.nonce;\n        requester = request.requester;\n        amount = request.amount;\n        depositAddress = request.depositAddress;\n        txid = request.txid;\n        timestamp = request.timestamp;\n        status = statusString;\n        requestHash = calcRequestHash(request);\n    }\n\n    function getBurnRequestsLength() external view returns (uint length) {\n        return burnRequests.length;\n    }\n\n    function getTimestamp() internal view returns (uint) {\n        // timestamp is only used for data maintaining purpose, it is not relied on for critical logic.\n        return block.timestamp; // solhint-disable-line not-rely-on-time\n    }\n\n    function getPendingMintRequest(bytes32 requestHash) internal view returns (uint nonce, Request memory request) {\n        require(requestHash != 0, \"request hash is 0\");\n        nonce = mintRequestNonce[requestHash];\n        request = mintRequests[nonce];\n        validatePendingRequest(request, requestHash);\n    }\n\n    function getPendingBurnRequest(bytes32 requestHash) internal view returns (uint nonce, Request memory request) {\n        require(requestHash != 0, \"request hash is 0\");\n        nonce = burnRequestNonce[requestHash];\n        request = burnRequests[nonce];\n        validatePendingRequest(request, requestHash);\n    }\n\n    function validatePendingRequest(Request memory request, bytes32 requestHash) internal pure {\n        require(request.status == RequestStatus.PENDING, \"request is not pending\");\n        require(requestHash == calcRequestHash(request), \"given request hash does not match a pending request\");\n    }\n\n    function calcRequestHash(Request request) internal pure returns (bytes32) {\n        return keccak256(abi.encode(\n            request.requester,\n            request.amount,\n            request.depositAddress,\n            request.txid,\n            request.nonce,\n            request.timestamp\n        ));\n    }\n\n    function compareStrings (string a, string b) internal pure returns (bool) {\n        return (keccak256(abi.encodePacked(a)) == keccak256(abi.encodePacked(b)));\n    }\n\n    function isEmptyString (string a) internal pure returns (bool) {\n        return (compareStrings(a, \"\"));\n    }\n\n    function getStatusString(RequestStatus status) internal pure returns (string) {\n        if (status == RequestStatus.PENDING) {\n            return \"pending\";\n        } else if (status == RequestStatus.CANCELED) {\n            return \"canceled\";\n        } else if (status == RequestStatus.APPROVED) {\n            return \"approved\";\n        } else if (status == RequestStatus.REJECTED) {\n            return \"rejected\";\n        } else {\n            // this fallback can never be reached.\n            return \"unknown\";\n        }\n    }\n}\n",
  "sourcePath": "C:\\Users\\pc28\\Desktop\\coin\\New folder\\contracts\\factory\\Factory.sol",
  "compiler": {
    "name": "solc",
    "version": "0.4.24+commit.e67f0147.Emscripten.clang"
  },
  "schemaVersion": "3.3.3",
  "updatedAt": "2021-02-25T05:57:17.609Z",
  "devdoc": {
    "methods": {
      "claimOwnership()": {
        "details": "Allows the pendingOwner address to finalize the transfer."
      },
      "reclaimToken(address)": {
        "details": "Reclaim all ERC20Basic compatible tokens",
        "params": {
          "_token": "ERC20Basic The address of the token contract"
        }
      },
      "renounceOwnership()": {
        "details": "Allows the current owner to relinquish control of the contract."
      },
      "transferOwnership(address)": {
        "details": "Allows the current owner to set the pendingOwner address.",
        "params": {
          "newOwner": "The address to transfer ownership to."
        }
      }
    }
  },
  "userdoc": {
    "methods": {
      "renounceOwnership()": {
        "notice": "Renouncing to ownership will leave the contract without an owner. It will not be possible to call the functions with the `onlyOwner` modifier anymore."
      }
    }
  }
}