{
  "contractName": "Members",
  "abi": [
    {
      "constant": false,
      "inputs": [
        {
          "name": "_token",
          "type": "address"
        }
      ],
      "name": "reclaimToken",
      "outputs": [],
      "payable": false,
      "stateMutability": "nonpayable",
      "type": "function"
    },
    {
      "constant": true,
      "inputs": [],
      "name": "custodian",
      "outputs": [
        {
          "name": "",
          "type": "address"
        }
      ],
      "payable": false,
      "stateMutability": "view",
      "type": "function"
    },
    {
      "constant": false,
      "inputs": [],
      "name": "claimOwnership",
      "outputs": [],
      "payable": false,
      "stateMutability": "nonpayable",
      "type": "function"
    },
    {
      "constant": false,
      "inputs": [],
      "name": "renounceOwnership",
      "outputs": [],
      "payable": false,
      "stateMutability": "nonpayable",
      "type": "function"
    },
    {
      "constant": true,
      "inputs": [],
      "name": "owner",
      "outputs": [
        {
          "name": "",
          "type": "address"
        }
      ],
      "payable": false,
      "stateMutability": "view",
      "type": "function"
    },
    {
      "constant": true,
      "inputs": [],
      "name": "pendingOwner",
      "outputs": [
        {
          "name": "",
          "type": "address"
        }
      ],
      "payable": false,
      "stateMutability": "view",
      "type": "function"
    },
    {
      "constant": false,
      "inputs": [
        {
          "name": "newOwner",
          "type": "address"
        }
      ],
      "name": "transferOwnership",
      "outputs": [],
      "payable": false,
      "stateMutability": "nonpayable",
      "type": "function"
    },
    {
      "inputs": [
        {
          "name": "_owner",
          "type": "address"
        }
      ],
      "payable": false,
      "stateMutability": "nonpayable",
      "type": "constructor"
    },
    {
      "anonymous": false,
      "inputs": [
        {
          "indexed": true,
          "name": "custodian",
          "type": "address"
        }
      ],
      "name": "CustodianSet",
      "type": "event"
    },
    {
      "anonymous": false,
      "inputs": [
        {
          "indexed": true,
          "name": "merchant",
          "type": "address"
        }
      ],
      "name": "MerchantAdd",
      "type": "event"
    },
    {
      "anonymous": false,
      "inputs": [
        {
          "indexed": true,
          "name": "merchant",
          "type": "address"
        }
      ],
      "name": "MerchantRemove",
      "type": "event"
    },
    {
      "anonymous": false,
      "inputs": [
        {
          "indexed": true,
          "name": "previousOwner",
          "type": "address"
        }
      ],
      "name": "OwnershipRenounced",
      "type": "event"
    },
    {
      "anonymous": false,
      "inputs": [
        {
          "indexed": true,
          "name": "previousOwner",
          "type": "address"
        },
        {
          "indexed": true,
          "name": "newOwner",
          "type": "address"
        }
      ],
      "name": "OwnershipTransferred",
      "type": "event"
    },
    {
      "constant": false,
      "inputs": [
        {
          "name": "_custodian",
          "type": "address"
        }
      ],
      "name": "setCustodian",
      "outputs": [
        {
          "name": "",
          "type": "bool"
        }
      ],
      "payable": false,
      "stateMutability": "nonpayable",
      "type": "function"
    },
    {
      "constant": false,
      "inputs": [
        {
          "name": "merchant",
          "type": "address"
        }
      ],
      "name": "addMerchant",
      "outputs": [
        {
          "name": "",
          "type": "bool"
        }
      ],
      "payable": false,
      "stateMutability": "nonpayable",
      "type": "function"
    },
    {
      "constant": false,
      "inputs": [
        {
          "name": "merchant",
          "type": "address"
        }
      ],
      "name": "removeMerchant",
      "outputs": [
        {
          "name": "",
          "type": "bool"
        }
      ],
      "payable": false,
      "stateMutability": "nonpayable",
      "type": "function"
    },
    {
      "constant": true,
      "inputs": [
        {
          "name": "addr",
          "type": "address"
        }
      ],
      "name": "isCustodian",
      "outputs": [
        {
          "name": "",
          "type": "bool"
        }
      ],
      "payable": false,
      "stateMutability": "view",
      "type": "function"
    },
    {
      "constant": true,
      "inputs": [
        {
          "name": "addr",
          "type": "address"
        }
      ],
      "name": "isMerchant",
      "outputs": [
        {
          "name": "",
          "type": "bool"
        }
      ],
      "payable": false,
      "stateMutability": "view",
      "type": "function"
    },
    {
      "constant": true,
      "inputs": [
        {
          "name": "index",
          "type": "uint256"
        }
      ],
      "name": "getMerchant",
      "outputs": [
        {
          "name": "",
          "type": "address"
        }
      ],
      "payable": false,
      "stateMutability": "view",
      "type": "function"
    },
    {
      "constant": true,
      "inputs": [],
      "name": "getMerchants",
      "outputs": [
        {
          "name": "",
          "type": "address[]"
        }
      ],
      "payable": false,
      "stateMutability": "view",
      "type": "function"
    }
  ],
  "bytecode": "0x608060405234801561001057600080fd5b5060405160208061177b83398101806040528101908080519060200190929190505050336000806101000a81548173ffffffffffffffffffffffffffffffffffffffff021916908373ffffffffffffffffffffffffffffffffffffffff160217905550600073ffffffffffffffffffffffffffffffffffffffff168173ffffffffffffffffffffffffffffffffffffffff1614151515610118576040517f08c379a00000000000000000000000000000000000000000000000000000000081526004018080602001828103825260168152602001807f696e76616c6964205f6f776e657220616464726573730000000000000000000081525060200191505060405180910390fd5b806000806101000a81548173ffffffffffffffffffffffffffffffffffffffff021916908373ffffffffffffffffffffffffffffffffffffffff16021790555050611613806101686000396000f3006080604052600436106100d0576000357c0100000000000000000000000000000000000000000000000000000000900463ffffffff168063133adab6146100d557806317ffc320146101305780631a2f71671461017357806335c80c8c146101ce578063375b74c314610229578063403f3731146102805780634e71e0c8146102db5780635d32798a146102f2578063715018a61461035f5780638da5cb5b14610376578063bf76c0ef146103cd578063e2d1800f14610428578063e30c397814610494578063f2fde38b146104eb575b600080fd5b3480156100e157600080fd5b50610116600480360381019080803573ffffffffffffffffffffffffffffffffffffffff16906020019092919050505061052e565b604051808215151515815260200191505060405180910390f35b34801561013c57600080fd5b50610171600480360381019080803573ffffffffffffffffffffffffffffffffffffffff169060200190929190505050610704565b005b34801561017f57600080fd5b506101b4600480360381019080803573ffffffffffffffffffffffffffffffffffffffff169060200190929190505050610889565b604051808215151515815260200191505060405180910390f35b3480156101da57600080fd5b5061020f600480360381019080803573ffffffffffffffffffffffffffffffffffffffff1690602001909291905050506108a6565b604051808215151515815260200191505060405180910390f35b34801561023557600080fd5b5061023e610900565b604051808273ffffffffffffffffffffffffffffffffffffffff1673ffffffffffffffffffffffffffffffffffffffff16815260200191505060405180910390f35b34801561028c57600080fd5b506102c1600480360381019080803573ffffffffffffffffffffffffffffffffffffffff169060200190929190505050610926565b604051808215151515815260200191505060405180910390f35b3480156102e757600080fd5b506102f0610ab5565b005b3480156102fe57600080fd5b5061031d60048036038101908080359060200190929190505050610c54565b604051808273ffffffffffffffffffffffffffffffffffffffff1673ffffffffffffffffffffffffffffffffffffffff16815260200191505060405180910390f35b34801561036b57600080fd5b50610374610c71565b005b34801561038257600080fd5b5061038b610d73565b604051808273ffffffffffffffffffffffffffffffffffffffff1673ffffffffffffffffffffffffffffffffffffffff16815260200191505060405180910390f35b3480156103d957600080fd5b5061040e600480360381019080803573ffffffffffffffffffffffffffffffffffffffff169060200190929190505050610d98565b604051808215151515815260200191505060405180910390f35b34801561043457600080fd5b5061043d610f6e565b6040518080602001828103825283818151815260200191508051906020019060200280838360005b83811015610480578082015181840152602081019050610465565b505050509050019250505060405180910390f35b3480156104a057600080fd5b506104a9610f7f565b604051808273ffffffffffffffffffffffffffffffffffffffff1673ffffffffffffffffffffffffffffffffffffffff16815260200191505060405180910390f35b3480156104f757600080fd5b5061052c600480360381019080803573ffffffffffffffffffffffffffffffffffffffff169060200190929190505050610fa5565b005b60008060009054906101000a900473ffffffffffffffffffffffffffffffffffffffff1673ffffffffffffffffffffffffffffffffffffffff163373ffffffffffffffffffffffffffffffffffffffff1614151561058b57600080fd5b600073ffffffffffffffffffffffffffffffffffffffff168273ffffffffffffffffffffffffffffffffffffffff1614151515610630576040517f08c379a00000000000000000000000000000000000000000000000000000000081526004018080602001828103825260188152602001807f696e76616c6964206d65726368616e742061646472657373000000000000000081525060200191505060405180910390fd5b61064482600361104490919063ffffffff16565b15156106b8576040517f08c379a00000000000000000000000000000000000000000000000000000000081526004018080602001828103825260168152602001807f6d65726368616e742072656d6f7665206661696c65640000000000000000000081525060200191505060405180910390fd5b8173ffffffffffffffffffffffffffffffffffffffff167f992dc0f9ccd9e3a061bd113c6caf19dceacce1f3e2ec016588b03ade3649d00460405160405180910390a260019050919050565b60008060009054906101000a900473ffffffffffffffffffffffffffffffffffffffff1673ffffffffffffffffffffffffffffffffffffffff163373ffffffffffffffffffffffffffffffffffffffff1614151561076157600080fd5b8173ffffffffffffffffffffffffffffffffffffffff166370a08231306040518263ffffffff167c0100000000000000000000000000000000000000000000000000000000028152600401808273ffffffffffffffffffffffffffffffffffffffff1673ffffffffffffffffffffffffffffffffffffffff168152602001915050602060405180830381600087803b1580156107fc57600080fd5b505af1158015610810573d6000803e3d6000fd5b505050506040513d602081101561082657600080fd5b810190808051906020019092919050505090506108856000809054906101000a900473ffffffffffffffffffffffffffffffffffffffff16828473ffffffffffffffffffffffffffffffffffffffff166112499092919063ffffffff16565b5050565b600061089f82600361133790919063ffffffff16565b9050919050565b6000600260009054906101000a900473ffffffffffffffffffffffffffffffffffffffff1673ffffffffffffffffffffffffffffffffffffffff168273ffffffffffffffffffffffffffffffffffffffff16149050919050565b600260009054906101000a900473ffffffffffffffffffffffffffffffffffffffff1681565b60008060009054906101000a900473ffffffffffffffffffffffffffffffffffffffff1673ffffffffffffffffffffffffffffffffffffffff163373ffffffffffffffffffffffffffffffffffffffff1614151561098357600080fd5b600073ffffffffffffffffffffffffffffffffffffffff168273ffffffffffffffffffffffffffffffffffffffff1614151515610a28576040517f08c379a00000000000000000000000000000000000000000000000000000000081526004018080602001828103825260198152602001807f696e76616c696420637573746f6469616e20616464726573730000000000000081525060200191505060405180910390fd5b81600260006101000a81548173ffffffffffffffffffffffffffffffffffffffff021916908373ffffffffffffffffffffffffffffffffffffffff1602179055508173ffffffffffffffffffffffffffffffffffffffff167fb88c20a211c5d7677ba2a26c317d8ae6b25aa492016dc8ceca2469761d063d8060405160405180910390a260019050919050565b600160009054906101000a900473ffffffffffffffffffffffffffffffffffffffff1673ffffffffffffffffffffffffffffffffffffffff163373ffffffffffffffffffffffffffffffffffffffff16141515610b1157600080fd5b600160009054906101000a900473ffffffffffffffffffffffffffffffffffffffff1673ffffffffffffffffffffffffffffffffffffffff166000809054906101000a900473ffffffffffffffffffffffffffffffffffffffff1673ffffffffffffffffffffffffffffffffffffffff167f8be0079c531659141344cd1fd0a4f28419497f9722a3daafe3b4186f6b6457e060405160405180910390a3600160009054906101000a900473ffffffffffffffffffffffffffffffffffffffff166000806101000a81548173ffffffffffffffffffffffffffffffffffffffff021916908373ffffffffffffffffffffffffffffffffffffffff1602179055506000600160006101000a81548173ffffffffffffffffffffffffffffffffffffffff021916908373ffffffffffffffffffffffffffffffffffffffff160217905550565b6000610c6a82600361139090919063ffffffff16565b9050919050565b6000809054906101000a900473ffffffffffffffffffffffffffffffffffffffff1673ffffffffffffffffffffffffffffffffffffffff163373ffffffffffffffffffffffffffffffffffffffff16141515610ccc57600080fd5b6000809054906101000a900473ffffffffffffffffffffffffffffffffffffffff1673ffffffffffffffffffffffffffffffffffffffff167ff8df31144d9c2f0f6b59d69b8b98abd5459d07f2742c4df920b25aae33c6482060405160405180910390a260008060006101000a81548173ffffffffffffffffffffffffffffffffffffffff021916908373ffffffffffffffffffffffffffffffffffffffff160217905550565b6000809054906101000a900473ffffffffffffffffffffffffffffffffffffffff1681565b60008060009054906101000a900473ffffffffffffffffffffffffffffffffffffffff1673ffffffffffffffffffffffffffffffffffffffff163373ffffffffffffffffffffffffffffffffffffffff16141515610df557600080fd5b600073ffffffffffffffffffffffffffffffffffffffff168273ffffffffffffffffffffffffffffffffffffffff1614151515610e9a576040517f08c379a00000000000000000000000000000000000000000000000000000000081526004018080602001828103825260188152602001807f696e76616c6964206d65726368616e742061646472657373000000000000000081525060200191505060405180910390fd5b610eae8260036113d690919063ffffffff16565b1515610f22576040517f08c379a00000000000000000000000000000000000000000000000000000000081526004018080602001828103825260138152602001807f6d65726368616e7420616464206661696c65640000000000000000000000000081525060200191505060405180910390fd5b8173ffffffffffffffffffffffffffffffffffffffff167fc596bdf76682c6315371c70f872bf03746834f9dd5d02793d07de0d5e8f4015560405160405180910390a260019050919050565b6060610f7a6003611504565b905090565b600160009054906101000a900473ffffffffffffffffffffffffffffffffffffffff1681565b6000809054906101000a900473ffffffffffffffffffffffffffffffffffffffff1673ffffffffffffffffffffffffffffffffffffffff163373ffffffffffffffffffffffffffffffffffffffff1614151561100057600080fd5b80600160006101000a81548173ffffffffffffffffffffffffffffffffffffffff021916908373ffffffffffffffffffffffffffffffffffffffff16021790555050565b60008060006110538585611337565b15156110625760009250611241565b8460010160008573ffffffffffffffffffffffffffffffffffffffff1673ffffffffffffffffffffffffffffffffffffffff1681526020019081526020016000205491508460020160018660020180549050038154811015156110c157fe5b9060005260206000200160009054906101000a900473ffffffffffffffffffffffffffffffffffffffff16905080856002018381548110151561110057fe5b9060005260206000200160006101000a81548173ffffffffffffffffffffffffffffffffffffffff021916908373ffffffffffffffffffffffffffffffffffffffff160217905550818560010160008373ffffffffffffffffffffffffffffffffffffffff1673ffffffffffffffffffffffffffffffffffffffff16815260200190815260200160002081905550846002018054809190600190036111a59190611596565b508460000160008573ffffffffffffffffffffffffffffffffffffffff1673ffffffffffffffffffffffffffffffffffffffff16815260200190815260200160002060006101000a81549060ff02191690558460010160008573ffffffffffffffffffffffffffffffffffffffff1673ffffffffffffffffffffffffffffffffffffffff16815260200190815260200160002060009055600192505b505092915050565b8273ffffffffffffffffffffffffffffffffffffffff1663a9059cbb83836040518363ffffffff167c0100000000000000000000000000000000000000000000000000000000028152600401808373ffffffffffffffffffffffffffffffffffffffff1673ffffffffffffffffffffffffffffffffffffffff16815260200182815260200192505050602060405180830381600087803b1580156112ec57600080fd5b505af1158015611300573d6000803e3d6000fd5b505050506040513d602081101561131657600080fd5b8101908080519060200190929190505050151561133257600080fd5b505050565b60008260000160008373ffffffffffffffffffffffffffffffffffffffff1673ffffffffffffffffffffffffffffffffffffffff16815260200190815260200160002060009054906101000a900460ff16905092915050565b600082600201828154811015156113a357fe5b9060005260206000200160009054906101000a900473ffffffffffffffffffffffffffffffffffffffff16905092915050565b60006113e28383611337565b156113f057600090506114fe565b60018360000160008473ffffffffffffffffffffffffffffffffffffffff1673ffffffffffffffffffffffffffffffffffffffff16815260200190815260200160002060006101000a81548160ff0219169083151502179055506001836002018390806001815401808255809150509060018203906000526020600020016000909192909190916101000a81548173ffffffffffffffffffffffffffffffffffffffff021916908373ffffffffffffffffffffffffffffffffffffffff160217905550038360010160008473ffffffffffffffffffffffffffffffffffffffff1673ffffffffffffffffffffffffffffffffffffffff16815260200190815260200160002081905550600190505b92915050565b60608160020180548060200260200160405190810160405280929190818152602001828054801561158a57602002820191906000526020600020905b8160009054906101000a900473ffffffffffffffffffffffffffffffffffffffff1673ffffffffffffffffffffffffffffffffffffffff1681526020019060010190808311611540575b50505050509050919050565b8154818355818111156115bd578183600052602060002091820191016115bc91906115c2565b5b505050565b6115e491905b808211156115e05760008160009055506001016115c8565b5090565b905600a165627a7a723058201551de4d5b8424fb1ec824b5f8adf0eb592ab3a52d0e5355aba58bcf752fa3ad0029",
  "source": "pragma solidity 0.4.24;\n\nimport \"../utils/OwnableContract.sol\";\nimport \"../utils/IndexedMapping.sol\";\nimport \"../factory/MembersInterface.sol\";\n\n\ncontract Members is MembersInterface, OwnableContract {\n\n    address public custodian;\n\n    using IndexedMapping for IndexedMapping.Data;\n    IndexedMapping.Data internal merchants;\n\n    constructor(address _owner) public {\n        require(_owner != address(0), \"invalid _owner address\");\n        owner = _owner;\n    }\n\n    event CustodianSet(address indexed custodian);\n\n    function setCustodian(address _custodian) external onlyOwner returns (bool) {\n        require(_custodian != address(0), \"invalid custodian address\");\n        custodian = _custodian;\n\n        emit CustodianSet(_custodian);\n        return true;\n    }\n\n    event MerchantAdd(address indexed merchant);\n\n    function addMerchant(address merchant) external onlyOwner returns (bool) {\n        require(merchant != address(0), \"invalid merchant address\");\n        require(merchants.add(merchant), \"merchant add failed\");\n\n        emit MerchantAdd(merchant);\n        return true;\n    } \n\n    event MerchantRemove(address indexed merchant);\n\n    function removeMerchant(address merchant) external onlyOwner returns (bool) {\n        require(merchant != address(0), \"invalid merchant address\");\n        require(merchants.remove(merchant), \"merchant remove failed\");\n\n        emit MerchantRemove(merchant);\n        return true;\n    }\n\n    function isCustodian(address addr) external view returns (bool) {\n        return (addr == custodian);\n    }\n\n    function isMerchant(address addr) external view returns (bool) {\n        return merchants.exists(addr);\n    }\n\n    function getMerchant(uint index) external view returns (address) {\n        return merchants.getValue(index);\n    }\n\n    function getMerchants() external view returns (address[]) {\n        return merchants.getValueList();\n    }\n}\n",
  "sourcePath": "C:/Users/pc28/Desktop/coin/New folder/contracts/factory/Members.sol",
  "compiler": {
    "name": "solc",
    "version": "0.4.24+commit.e67f0147.Emscripten.clang"
  },
  "schemaVersion": "3.3.3",
  "updatedAt": "2021-02-16T06:54:14.279Z",
  "devdoc": {
    "methods": {
      "claimOwnership()": {
        "details": "Allows the pendingOwner address to finalize the transfer."
      },
      "reclaimToken(address)": {
        "details": "Reclaim all ERC20Basic compatible tokens",
        "params": {
          "_token": "ERC20Basic The address of the token contract"
        }
      },
      "renounceOwnership()": {
        "details": "Allows the current owner to relinquish control of the contract."
      },
      "transferOwnership(address)": {
        "details": "Allows the current owner to set the pendingOwner address.",
        "params": {
          "newOwner": "The address to transfer ownership to."
        }
      }
    }
  },
  "userdoc": {
    "methods": {
      "renounceOwnership()": {
        "notice": "Renouncing to ownership will leave the contract without an owner. It will not be possible to call the functions with the `onlyOwner` modifier anymore."
      }
    }
  }
}